{
  "_format": "hh-sol-artifact-1",
  "contractName": "CLSRouter",
  "sourceName": "contracts/CLSRouter.sol",
  "abi": [
    {
      "inputs": [
        {
          "internalType": "address",
          "name": "_factory",
          "type": "address"
        },
        {
          "internalType": "address",
          "name": "_WETH",
          "type": "address"
        },
        {
          "internalType": "address",
          "name": "_CLS",
          "type": "address"
        }
      ],
      "stateMutability": "nonpayable",
      "type": "constructor"
    },
    {
      "anonymous": false,
      "inputs": [
        {
          "indexed": true,
          "internalType": "address",
          "name": "previousOwner",
          "type": "address"
        },
        {
          "indexed": true,
          "internalType": "address",
          "name": "newOwner",
          "type": "address"
        }
      ],
      "name": "OwnershipTransferred",
      "type": "event"
    },
    {
      "inputs": [],
      "name": "LPfeeReceiver",
      "outputs": [
        {
          "internalType": "address",
          "name": "",
          "type": "address"
        }
      ],
      "stateMutability": "view",
      "type": "function"
    },
    {
      "inputs": [],
      "name": "LPreceiverETHFee",
      "outputs": [
        {
          "internalType": "uint256",
          "name": "",
          "type": "uint256"
        }
      ],
      "stateMutability": "view",
      "type": "function"
    },
    {
      "inputs": [],
      "name": "WETH",
      "outputs": [
        {
          "internalType": "address",
          "name": "",
          "type": "address"
        }
      ],
      "stateMutability": "view",
      "type": "function"
    },
    {
      "inputs": [
        {
          "internalType": "uint256",
          "name": "amount",
          "type": "uint256"
        }
      ],
      "name": "_feeAmount",
      "outputs": [
        {
          "internalType": "uint256",
          "name": "",
          "type": "uint256"
        }
      ],
      "stateMutability": "view",
      "type": "function"
    },
    {
      "inputs": [
        {
          "internalType": "address",
          "name": "tokenA",
          "type": "address"
        },
        {
          "internalType": "address",
          "name": "tokenB",
          "type": "address"
        },
        {
          "internalType": "uint256",
          "name": "amountADesired",
          "type": "uint256"
        },
        {
          "internalType": "uint256",
          "name": "amountBDesired",
          "type": "uint256"
        },
        {
          "internalType": "uint256",
          "name": "amountAMin",
          "type": "uint256"
        },
        {
          "internalType": "uint256",
          "name": "amountBMin",
          "type": "uint256"
        },
        {
          "internalType": "address",
          "name": "to",
          "type": "address"
        },
        {
          "internalType": "uint256",
          "name": "deadline",
          "type": "uint256"
        }
      ],
      "name": "addLiquidity",
      "outputs": [
        {
          "internalType": "uint256",
          "name": "amountA",
          "type": "uint256"
        },
        {
          "internalType": "uint256",
          "name": "amountB",
          "type": "uint256"
        },
        {
          "internalType": "uint256",
          "name": "liquidity",
          "type": "uint256"
        }
      ],
      "stateMutability": "nonpayable",
      "type": "function"
    },
    {
      "inputs": [
        {
          "internalType": "address",
          "name": "token",
          "type": "address"
        },
        {
          "internalType": "uint256",
          "name": "amountTokenDesired",
          "type": "uint256"
        },
        {
          "internalType": "uint256",
          "name": "amountTokenMin",
          "type": "uint256"
        },
        {
          "internalType": "uint256",
          "name": "amountETHMin",
          "type": "uint256"
        },
        {
          "internalType": "address",
          "name": "to",
          "type": "address"
        },
        {
          "internalType": "uint256",
          "name": "deadline",
          "type": "uint256"
        }
      ],
      "name": "addLiquidityETH",
      "outputs": [
        {
          "internalType": "uint256",
          "name": "amountToken",
          "type": "uint256"
        },
        {
          "internalType": "uint256",
          "name": "amountETH",
          "type": "uint256"
        },
        {
          "internalType": "uint256",
          "name": "liquidity",
          "type": "uint256"
        }
      ],
      "stateMutability": "payable",
      "type": "function"
    },
    {
      "inputs": [],
      "name": "cls",
      "outputs": [
        {
          "internalType": "address",
          "name": "",
          "type": "address"
        }
      ],
      "stateMutability": "view",
      "type": "function"
    },
    {
      "inputs": [],
      "name": "factory",
      "outputs": [
        {
          "internalType": "address",
          "name": "",
          "type": "address"
        }
      ],
      "stateMutability": "view",
      "type": "function"
    },
    {
      "inputs": [],
      "name": "feeOFF",
      "outputs": [
        {
          "internalType": "bool",
          "name": "",
          "type": "bool"
        }
      ],
      "stateMutability": "view",
      "type": "function"
    },
    {
      "inputs": [],
      "name": "feeReceiver",
      "outputs": [
        {
          "internalType": "address",
          "name": "",
          "type": "address"
        }
      ],
      "stateMutability": "view",
      "type": "function"
    },
    {
      "inputs": [
        {
          "internalType": "uint256",
          "name": "amountOut",
          "type": "uint256"
        },
        {
          "internalType": "uint256",
          "name": "reserveIn",
          "type": "uint256"
        },
        {
          "internalType": "uint256",
          "name": "reserveOut",
          "type": "uint256"
        }
      ],
      "name": "getAmountIn",
      "outputs": [
        {
          "internalType": "uint256",
          "name": "amountIn",
          "type": "uint256"
        }
      ],
      "stateMutability": "pure",
      "type": "function"
    },
    {
      "inputs": [
        {
          "internalType": "uint256",
          "name": "amountIn",
          "type": "uint256"
        },
        {
          "internalType": "uint256",
          "name": "reserveIn",
          "type": "uint256"
        },
        {
          "internalType": "uint256",
          "name": "reserveOut",
          "type": "uint256"
        }
      ],
      "name": "getAmountOut",
      "outputs": [
        {
          "internalType": "uint256",
          "name": "amountOut",
          "type": "uint256"
        }
      ],
      "stateMutability": "pure",
      "type": "function"
    },
    {
      "inputs": [
        {
          "internalType": "uint256",
          "name": "amountOut",
          "type": "uint256"
        },
        {
          "internalType": "address[]",
          "name": "path",
          "type": "address[]"
        }
      ],
      "name": "getAmountsIn",
      "outputs": [
        {
          "internalType": "uint256[]",
          "name": "amounts",
          "type": "uint256[]"
        }
      ],
      "stateMutability": "view",
      "type": "function"
    },
    {
      "inputs": [
        {
          "internalType": "uint256",
          "name": "amountIn",
          "type": "uint256"
        },
        {
          "internalType": "address[]",
          "name": "path",
          "type": "address[]"
        }
      ],
      "name": "getAmountsOut",
      "outputs": [
        {
          "internalType": "uint256[]",
          "name": "amounts",
          "type": "uint256[]"
        }
      ],
      "stateMutability": "view",
      "type": "function"
    },
    {
      "inputs": [],
      "name": "owner",
      "outputs": [
        {
          "internalType": "address",
          "name": "",
          "type": "address"
        }
      ],
      "stateMutability": "view",
      "type": "function"
    },
    {
      "inputs": [
        {
          "internalType": "uint256",
          "name": "amountA",
          "type": "uint256"
        },
        {
          "internalType": "uint256",
          "name": "reserveA",
          "type": "uint256"
        },
        {
          "internalType": "uint256",
          "name": "reserveB",
          "type": "uint256"
        }
      ],
      "name": "quote",
      "outputs": [
        {
          "internalType": "uint256",
          "name": "amountB",
          "type": "uint256"
        }
      ],
      "stateMutability": "pure",
      "type": "function"
    },
    {
      "inputs": [],
      "name": "receiverETHFee",
      "outputs": [
        {
          "internalType": "uint256",
          "name": "",
          "type": "uint256"
        }
      ],
      "stateMutability": "view",
      "type": "function"
    },
    {
      "inputs": [
        {
          "internalType": "address",
          "name": "tokenA",
          "type": "address"
        },
        {
          "internalType": "address",
          "name": "tokenB",
          "type": "address"
        },
        {
          "internalType": "uint256",
          "name": "liquidity",
          "type": "uint256"
        },
        {
          "internalType": "uint256",
          "name": "amountAMin",
          "type": "uint256"
        },
        {
          "internalType": "uint256",
          "name": "amountBMin",
          "type": "uint256"
        },
        {
          "internalType": "address",
          "name": "to",
          "type": "address"
        },
        {
          "internalType": "uint256",
          "name": "deadline",
          "type": "uint256"
        }
      ],
      "name": "removeLiquidity",
      "outputs": [
        {
          "internalType": "uint256",
          "name": "amountA",
          "type": "uint256"
        },
        {
          "internalType": "uint256",
          "name": "amountB",
          "type": "uint256"
        }
      ],
      "stateMutability": "nonpayable",
      "type": "function"
    },
    {
      "inputs": [
        {
          "internalType": "address",
          "name": "token",
          "type": "address"
        },
        {
          "internalType": "uint256",
          "name": "liquidity",
          "type": "uint256"
        },
        {
          "internalType": "uint256",
          "name": "amountTokenMin",
          "type": "uint256"
        },
        {
          "internalType": "uint256",
          "name": "amountETHMin",
          "type": "uint256"
        },
        {
          "internalType": "address",
          "name": "to",
          "type": "address"
        },
        {
          "internalType": "uint256",
          "name": "deadline",
          "type": "uint256"
        }
      ],
      "name": "removeLiquidityETH",
      "outputs": [
        {
          "internalType": "uint256",
          "name": "amountToken",
          "type": "uint256"
        },
        {
          "internalType": "uint256",
          "name": "amountETH",
          "type": "uint256"
        }
      ],
      "stateMutability": "nonpayable",
      "type": "function"
    },
    {
      "inputs": [
        {
          "internalType": "address",
          "name": "token",
          "type": "address"
        },
        {
          "internalType": "uint256",
          "name": "liquidity",
          "type": "uint256"
        },
        {
          "internalType": "uint256",
          "name": "amountTokenMin",
          "type": "uint256"
        },
        {
          "internalType": "uint256",
          "name": "amountETHMin",
          "type": "uint256"
        },
        {
          "internalType": "address",
          "name": "to",
          "type": "address"
        },
        {
          "internalType": "uint256",
          "name": "deadline",
          "type": "uint256"
        }
      ],
      "name": "removeLiquidityETHSupportingFeeOnTransferTokens",
      "outputs": [
        {
          "internalType": "uint256",
          "name": "amountETH",
          "type": "uint256"
        }
      ],
      "stateMutability": "nonpayable",
      "type": "function"
    },
    {
      "inputs": [
        {
          "internalType": "address",
          "name": "token",
          "type": "address"
        },
        {
          "internalType": "uint256",
          "name": "liquidity",
          "type": "uint256"
        },
        {
          "internalType": "uint256",
          "name": "amountTokenMin",
          "type": "uint256"
        },
        {
          "internalType": "uint256",
          "name": "amountETHMin",
          "type": "uint256"
        },
        {
          "internalType": "address",
          "name": "to",
          "type": "address"
        },
        {
          "internalType": "uint256",
          "name": "deadline",
          "type": "uint256"
        },
        {
          "internalType": "bool",
          "name": "approveMax",
          "type": "bool"
        },
        {
          "internalType": "uint8",
          "name": "v",
          "type": "uint8"
        },
        {
          "internalType": "bytes32",
          "name": "r",
          "type": "bytes32"
        },
        {
          "internalType": "bytes32",
          "name": "s",
          "type": "bytes32"
        }
      ],
      "name": "removeLiquidityETHWithPermit",
      "outputs": [
        {
          "internalType": "uint256",
          "name": "amountToken",
          "type": "uint256"
        },
        {
          "internalType": "uint256",
          "name": "amountETH",
          "type": "uint256"
        }
      ],
      "stateMutability": "nonpayable",
      "type": "function"
    },
    {
      "inputs": [
        {
          "internalType": "address",
          "name": "token",
          "type": "address"
        },
        {
          "internalType": "uint256",
          "name": "liquidity",
          "type": "uint256"
        },
        {
          "internalType": "uint256",
          "name": "amountTokenMin",
          "type": "uint256"
        },
        {
          "internalType": "uint256",
          "name": "amountETHMin",
          "type": "uint256"
        },
        {
          "internalType": "address",
          "name": "to",
          "type": "address"
        },
        {
          "internalType": "uint256",
          "name": "deadline",
          "type": "uint256"
        },
        {
          "internalType": "bool",
          "name": "approveMax",
          "type": "bool"
        },
        {
          "internalType": "uint8",
          "name": "v",
          "type": "uint8"
        },
        {
          "internalType": "bytes32",
          "name": "r",
          "type": "bytes32"
        },
        {
          "internalType": "bytes32",
          "name": "s",
          "type": "bytes32"
        }
      ],
      "name": "removeLiquidityETHWithPermitSupportingFeeOnTransferTokens",
      "outputs": [
        {
          "internalType": "uint256",
          "name": "amountETH",
          "type": "uint256"
        }
      ],
      "stateMutability": "nonpayable",
      "type": "function"
    },
    {
      "inputs": [
        {
          "internalType": "address",
          "name": "tokenA",
          "type": "address"
        },
        {
          "internalType": "address",
          "name": "tokenB",
          "type": "address"
        },
        {
          "internalType": "uint256",
          "name": "liquidity",
          "type": "uint256"
        },
        {
          "internalType": "uint256",
          "name": "amountAMin",
          "type": "uint256"
        },
        {
          "internalType": "uint256",
          "name": "amountBMin",
          "type": "uint256"
        },
        {
          "internalType": "address",
          "name": "to",
          "type": "address"
        },
        {
          "internalType": "uint256",
          "name": "deadline",
          "type": "uint256"
        },
        {
          "internalType": "bool",
          "name": "approveMax",
          "type": "bool"
        },
        {
          "internalType": "uint8",
          "name": "v",
          "type": "uint8"
        },
        {
          "internalType": "bytes32",
          "name": "r",
          "type": "bytes32"
        },
        {
          "internalType": "bytes32",
          "name": "s",
          "type": "bytes32"
        }
      ],
      "name": "removeLiquidityWithPermit",
      "outputs": [
        {
          "internalType": "uint256",
          "name": "amountA",
          "type": "uint256"
        },
        {
          "internalType": "uint256",
          "name": "amountB",
          "type": "uint256"
        }
      ],
      "stateMutability": "nonpayable",
      "type": "function"
    },
    {
      "inputs": [
        {
          "internalType": "uint256",
          "name": "_receiverETHFee",
          "type": "uint256"
        }
      ],
      "name": "seReceiverFee",
      "outputs": [],
      "stateMutability": "nonpayable",
      "type": "function"
    },
    {
      "inputs": [
        {
          "internalType": "address",
          "name": "_factory",
          "type": "address"
        }
      ],
      "name": "setFactoryAddress",
      "outputs": [],
      "stateMutability": "nonpayable",
      "type": "function"
    },
    {
      "inputs": [
        {
          "internalType": "bool",
          "name": "_feeOFF",
          "type": "bool"
        }
      ],
      "name": "setFeeOFF",
      "outputs": [],
      "stateMutability": "nonpayable",
      "type": "function"
    },
    {
      "inputs": [
        {
          "internalType": "address",
          "name": "_feeReceiver",
          "type": "address"
        }
      ],
      "name": "setLPReceiverAddress",
      "outputs": [],
      "stateMutability": "nonpayable",
      "type": "function"
    },
    {
      "inputs": [
        {
          "internalType": "address",
          "name": "_feeReceiver",
          "type": "address"
        }
      ],
      "name": "setReceiverAddress",
      "outputs": [],
      "stateMutability": "nonpayable",
      "type": "function"
    },
    {
      "inputs": [
        {
          "internalType": "address",
          "name": "_CLS",
          "type": "address"
        }
      ],
      "name": "setTiFiAddress",
      "outputs": [],
      "stateMutability": "nonpayable",
      "type": "function"
    },
    {
      "inputs": [
        {
          "internalType": "address",
          "name": "_WETH",
          "type": "address"
        }
      ],
      "name": "setWETHAddress",
      "outputs": [],
      "stateMutability": "nonpayable",
      "type": "function"
    },
    {
      "inputs": [
        {
          "internalType": "uint256",
          "name": "_totalETHFee",
          "type": "uint256"
        }
      ],
      "name": "settotalETHFee",
      "outputs": [],
      "stateMutability": "nonpayable",
      "type": "function"
    },
    {
      "inputs": [
        {
          "internalType": "uint256",
          "name": "amountOut",
          "type": "uint256"
        },
        {
          "internalType": "address[]",
          "name": "path",
          "type": "address[]"
        },
        {
          "internalType": "address",
          "name": "to",
          "type": "address"
        },
        {
          "internalType": "uint256",
          "name": "deadline",
          "type": "uint256"
        }
      ],
      "name": "swapETHForExactTokens",
      "outputs": [
        {
          "internalType": "uint256[]",
          "name": "amounts",
          "type": "uint256[]"
        }
      ],
      "stateMutability": "payable",
      "type": "function"
    },
    {
      "inputs": [
        {
          "internalType": "uint256",
          "name": "amountOutMin",
          "type": "uint256"
        },
        {
          "internalType": "address[]",
          "name": "path",
          "type": "address[]"
        },
        {
          "internalType": "address",
          "name": "to",
          "type": "address"
        },
        {
          "internalType": "uint256",
          "name": "deadline",
          "type": "uint256"
        }
      ],
      "name": "swapExactETHForTokens",
      "outputs": [
        {
          "internalType": "uint256[]",
          "name": "amounts",
          "type": "uint256[]"
        }
      ],
      "stateMutability": "payable",
      "type": "function"
    },
    {
      "inputs": [
        {
          "internalType": "uint256",
          "name": "amountOutMin",
          "type": "uint256"
        },
        {
          "internalType": "address[]",
          "name": "path",
          "type": "address[]"
        },
        {
          "internalType": "address",
          "name": "to",
          "type": "address"
        },
        {
          "internalType": "uint256",
          "name": "deadline",
          "type": "uint256"
        }
      ],
      "name": "swapExactETHForTokensSupportingFeeOnTransferTokens",
      "outputs": [],
      "stateMutability": "payable",
      "type": "function"
    },
    {
      "inputs": [
        {
          "internalType": "uint256",
          "name": "amountIn",
          "type": "uint256"
        },
        {
          "internalType": "uint256",
          "name": "amountOutMin",
          "type": "uint256"
        },
        {
          "internalType": "address[]",
          "name": "path",
          "type": "address[]"
        },
        {
          "internalType": "address",
          "name": "to",
          "type": "address"
        },
        {
          "internalType": "uint256",
          "name": "deadline",
          "type": "uint256"
        }
      ],
      "name": "swapExactTokensForETH",
      "outputs": [
        {
          "internalType": "uint256[]",
          "name": "amounts",
          "type": "uint256[]"
        }
      ],
      "stateMutability": "nonpayable",
      "type": "function"
    },
    {
      "inputs": [
        {
          "internalType": "uint256",
          "name": "amountIn",
          "type": "uint256"
        },
        {
          "internalType": "uint256",
          "name": "amountOutMin",
          "type": "uint256"
        },
        {
          "internalType": "address[]",
          "name": "path",
          "type": "address[]"
        },
        {
          "internalType": "address",
          "name": "to",
          "type": "address"
        },
        {
          "internalType": "uint256",
          "name": "deadline",
          "type": "uint256"
        }
      ],
      "name": "swapExactTokensForETHSupportingFeeOnTransferTokens",
      "outputs": [],
      "stateMutability": "nonpayable",
      "type": "function"
    },
    {
      "inputs": [
        {
          "internalType": "uint256",
          "name": "amountIn",
          "type": "uint256"
        },
        {
          "internalType": "uint256",
          "name": "amountOutMin",
          "type": "uint256"
        },
        {
          "internalType": "address[]",
          "name": "path",
          "type": "address[]"
        },
        {
          "internalType": "address",
          "name": "to",
          "type": "address"
        },
        {
          "internalType": "uint256",
          "name": "deadline",
          "type": "uint256"
        }
      ],
      "name": "swapExactTokensForTokens",
      "outputs": [
        {
          "internalType": "uint256[]",
          "name": "amounts",
          "type": "uint256[]"
        }
      ],
      "stateMutability": "nonpayable",
      "type": "function"
    },
    {
      "inputs": [
        {
          "internalType": "uint256",
          "name": "amountIn",
          "type": "uint256"
        },
        {
          "internalType": "uint256",
          "name": "amountOutMin",
          "type": "uint256"
        },
        {
          "internalType": "address[]",
          "name": "path",
          "type": "address[]"
        },
        {
          "internalType": "address",
          "name": "to",
          "type": "address"
        },
        {
          "internalType": "uint256",
          "name": "deadline",
          "type": "uint256"
        }
      ],
      "name": "swapExactTokensForTokensSupportingFeeOnTransferTokens",
      "outputs": [],
      "stateMutability": "nonpayable",
      "type": "function"
    },
    {
      "inputs": [
        {
          "internalType": "uint256",
          "name": "amountOut",
          "type": "uint256"
        },
        {
          "internalType": "uint256",
          "name": "amountInMax",
          "type": "uint256"
        },
        {
          "internalType": "address[]",
          "name": "path",
          "type": "address[]"
        },
        {
          "internalType": "address",
          "name": "to",
          "type": "address"
        },
        {
          "internalType": "uint256",
          "name": "deadline",
          "type": "uint256"
        }
      ],
      "name": "swapTokensForExactETH",
      "outputs": [
        {
          "internalType": "uint256[]",
          "name": "amounts",
          "type": "uint256[]"
        }
      ],
      "stateMutability": "nonpayable",
      "type": "function"
    },
    {
      "inputs": [
        {
          "internalType": "uint256",
          "name": "amountOut",
          "type": "uint256"
        },
        {
          "internalType": "uint256",
          "name": "amountInMax",
          "type": "uint256"
        },
        {
          "internalType": "address[]",
          "name": "path",
          "type": "address[]"
        },
        {
          "internalType": "address",
          "name": "to",
          "type": "address"
        },
        {
          "internalType": "uint256",
          "name": "deadline",
          "type": "uint256"
        }
      ],
      "name": "swapTokensForExactTokens",
      "outputs": [
        {
          "internalType": "uint256[]",
          "name": "amounts",
          "type": "uint256[]"
        }
      ],
      "stateMutability": "nonpayable",
      "type": "function"
    },
    {
      "inputs": [],
      "name": "totalETHFee",
      "outputs": [
        {
          "internalType": "uint256",
          "name": "",
          "type": "uint256"
        }
      ],
      "stateMutability": "view",
      "type": "function"
    },
    {
      "inputs": [
        {
          "internalType": "address",
          "name": "newOwner",
          "type": "address"
        }
      ],
      "name": "transferOwnership",
      "outputs": [],
      "stateMutability": "nonpayable",
      "type": "function"
    },
    {
      "stateMutability": "payable",
      "type": "receive"
    }
  ],
  "bytecode": "0x6080604052600f600655600a60075560056008556009805460ff1916905534801561002957600080fd5b5060405162004d7d38038062004d7d8339818101604052606081101561004e57600080fd5b5080516020820151604090920151600080546001600160a01b039384166001600160a01b03199182161790915560018054948416948216949094179093556002805492909116918316919091179055600480548216339081179091556005805483168217905560038054909216179055614caf80620000ce6000396000f3fe6080604052600436106102555760003560e01c80638723ed1011610139578063b80547e2116100b6578063ded9382a1161007a578063ded9382a14610dfd578063e8e3370014610e70578063ec18c51d14610ef0578063f2fde38b14610f1a578063f305d71914610f4d578063fb3bdb4114610f9357610270565b8063b80547e214610c70578063baa2abde14610ca3578063c45a015514610d00578063c80f591a14610d15578063d06ca61f14610d4857610270565b8063ad615dec116100fd578063ad615dec14610b39578063af2979eb14610b6f578063b2fe7ffb14610bc2578063b3f0067414610bd7578063b6f9de9514610bec57610270565b80638723ed1014610a335780638803dbee14610a645780638da5cb5b14610afa578063929f18e414610b0f578063ad5c464814610b2457610270565b806350f87192116101d2578063791ac94711610196578063791ac947146108545780637ff36ab5146108ea578063808f6cf51461096e5780638279c7db1461099757806383c17c55146109ca57806385f8c259146109fd57610270565b806350f87192146106d75780635510ece8146106ec5780635b0d5984146107185780635c11d7951461078b5780636a4234eb1461082157610270565b80633396942a116102195780633396942a1461054257806338ed17391461056c5780634a25d94a146106025780634c8ba4f3146106985780634f010cd7146106ad57610270565b806302751cec14610275578063054d50d4146102e157806318cbafe5146103295780631f00ca741461040f5780632195995c146104c457610270565b36610270576001546001600160a01b0316331461026e57fe5b005b600080fd5b34801561028157600080fd5b506102c8600480360360c081101561029857600080fd5b506001600160a01b0381358116916020810135916040820135916060810135916080820135169060a00135611017565b6040805192835260208301919091528051918290030190f35b3480156102ed57600080fd5b506103176004803603606081101561030457600080fd5b5080359060208101359060400135611105565b60408051918252519081900360200190f35b34801561033557600080fd5b506103bf600480360360a081101561034c57600080fd5b813591602081013591810190606081016040820135600160201b81111561037257600080fd5b82018360208201111561038457600080fd5b803590602001918460208302840111600160201b831117156103a557600080fd5b91935091506001600160a01b03813516906020013561111a565b60408051602080825283518183015283519192839290830191858101910280838360005b838110156103fb5781810151838201526020016103e3565b505050509050019250505060405180910390f35b34801561041b57600080fd5b506103bf6004803603604081101561043257600080fd5b81359190810190604081016020820135600160201b81111561045357600080fd5b82018360208201111561046557600080fd5b803590602001918460208302840111600160201b8311171561048657600080fd5b91908080602002602001604051908101604052809392919081815260200183836020028082843760009201919091525092955061149a945050505050565b3480156104d057600080fd5b506102c860048036036101608110156104e857600080fd5b506001600160a01b038135811691602081013582169160408201359160608101359160808201359160a08101359091169060c08101359060e081013515159060ff61010082013516906101208101359061014001356114bd565b34801561054e57600080fd5b506103176004803603602081101561056557600080fd5b50356115a3565b34801561057857600080fd5b506103bf600480360360a081101561058f57600080fd5b813591602081013591810190606081016040820135600160201b8111156105b557600080fd5b8201836020820111156105c757600080fd5b803590602001918460208302840111600160201b831117156105e857600080fd5b91935091506001600160a01b0381351690602001356115d9565b34801561060e57600080fd5b506103bf600480360360a081101561062557600080fd5b813591602081013591810190606081016040820135600160201b81111561064b57600080fd5b82018360208201111561065d57600080fd5b803590602001918460208302840111600160201b8311171561067e57600080fd5b91935091506001600160a01b038135169060200135611720565b3480156106a457600080fd5b506103176118a6565b3480156106b957600080fd5b5061026e600480360360208110156106d057600080fd5b50356118ac565b3480156106e357600080fd5b506103176118fe565b3480156106f857600080fd5b5061026e6004803603602081101561070f57600080fd5b50351515611904565b34801561072457600080fd5b50610317600480360361014081101561073c57600080fd5b506001600160a01b0381358116916020810135916040820135916060810135916080820135169060a08101359060c081013515159060ff60e08201351690610100810135906101200135611964565b34801561079757600080fd5b5061026e600480360360a08110156107ae57600080fd5b813591602081013591810190606081016040820135600160201b8111156107d457600080fd5b8201836020820111156107e657600080fd5b803590602001918460208302840111600160201b8311171561080757600080fd5b91935091506001600160a01b038135169060200135611a45565b34801561082d57600080fd5b5061026e6004803603602081101561084457600080fd5b50356001600160a01b0316611d70565b34801561086057600080fd5b5061026e600480360360a081101561087757600080fd5b813591602081013591810190606081016040820135600160201b81111561089d57600080fd5b8201836020820111156108af57600080fd5b803590602001918460208302840111600160201b831117156108d057600080fd5b91935091506001600160a01b038135169060200135611ddf565b6103bf6004803603608081101561090057600080fd5b81359190810190604081016020820135600160201b81111561092157600080fd5b82018360208201111561093357600080fd5b803590602001918460208302840111600160201b8311171561095457600080fd5b91935091506001600160a01b038135169060200135612040565b34801561097a57600080fd5b50610983612392565b604080519115158252519081900360200190f35b3480156109a357600080fd5b5061026e600480360360208110156109ba57600080fd5b50356001600160a01b031661239b565b3480156109d657600080fd5b5061026e600480360360208110156109ed57600080fd5b50356001600160a01b031661240a565b348015610a0957600080fd5b5061031760048036036060811015610a2057600080fd5b5080359060208101359060400135612479565b348015610a3f57600080fd5b50610a48612486565b604080516001600160a01b039092168252519081900360200190f35b348015610a7057600080fd5b506103bf600480360360a0811015610a8757600080fd5b813591602081013591810190606081016040820135600160201b811115610aad57600080fd5b820183602082011115610abf57600080fd5b803590602001918460208302840111600160201b83111715610ae057600080fd5b91935091506001600160a01b038135169060200135612495565b348015610b0657600080fd5b50610a486125a6565b348015610b1b57600080fd5b50610a486125b5565b348015610b3057600080fd5b50610a486125c4565b348015610b4557600080fd5b5061031760048036036060811015610b5c57600080fd5b50803590602081013590604001356125d3565b348015610b7b57600080fd5b50610317600480360360c0811015610b9257600080fd5b506001600160a01b0381358116916020810135916040820135916060810135916080820135169060a001356125e0565b348015610bce57600080fd5b50610317612740565b348015610be357600080fd5b50610a48612746565b61026e60048036036080811015610c0257600080fd5b81359190810190604081016020820135600160201b811115610c2357600080fd5b820183602082011115610c3557600080fd5b803590602001918460208302840111600160201b83111715610c5657600080fd5b91935091506001600160a01b038135169060200135612755565b348015610c7c57600080fd5b5061026e60048036036020811015610c9357600080fd5b50356001600160a01b0316612b18565b348015610caf57600080fd5b506102c8600480360360e0811015610cc657600080fd5b506001600160a01b038135811691602081013582169160408201359160608101359160808201359160a08101359091169060c00135612b87565b348015610d0c57600080fd5b50610a48612de2565b348015610d2157600080fd5b5061026e60048036036020811015610d3857600080fd5b50356001600160a01b0316612df1565b348015610d5457600080fd5b506103bf60048036036040811015610d6b57600080fd5b81359190810190604081016020820135600160201b811115610d8c57600080fd5b820183602082011115610d9e57600080fd5b803590602001918460208302840111600160201b83111715610dbf57600080fd5b919080806020026020016040519081016040528093929190818152602001838360200280828437600092019190915250929550612e60945050505050565b348015610e0957600080fd5b506102c86004803603610140811015610e2157600080fd5b506001600160a01b0381358116916020810135916040820135916060810135916080820135169060a08101359060c081013515159060ff60e08201351690610100810135906101200135612e7a565b348015610e7c57600080fd5b50610ed26004803603610100811015610e9457600080fd5b506001600160a01b038135811691602081013582169160408201359160608101359160808201359160a08101359160c0820135169060e00135612f77565b60408051938452602084019290925282820152519081900360600190f35b348015610efc57600080fd5b5061026e60048036036020811015610f1357600080fd5b50356130a0565b348015610f2657600080fd5b5061026e60048036036020811015610f3d57600080fd5b50356001600160a01b03166130f2565b610ed2600480360360c0811015610f6357600080fd5b506001600160a01b0381358116916020810135916040820135916060810135916080820135169060a001356131ae565b6103bf60048036036080811015610fa957600080fd5b81359190810190604081016020820135600160201b811115610fca57600080fd5b820183602082011115610fdc57600080fd5b803590602001918460208302840111600160201b83111715610ffd57600080fd5b91935091506001600160a01b0381351690602001356133dd565b600080824281101561105e576040805162461bcd60e51b81526020600482015260126024820152600080516020614bed833981519152604482015290519081900360640190fd5b60015461107a908a906001600160a01b03168a8a8a308a612b87565b909350915061108a898685613762565b60015460408051632e1a7d4d60e01b81526004810185905290516001600160a01b0390921691632e1a7d4d9160248082019260009290919082900301818387803b1580156110d757600080fd5b505af11580156110eb573d6000803e3d6000fd5b505050506110f985836138cc565b50965096945050505050565b60006111128484846139c4565b949350505050565b60608142811015611160576040805162461bcd60e51b81526020600482015260126024820152600080516020614bed833981519152604482015290519081900360640190fd5b6001546001600160a01b03168686600019810181811061117c57fe5b905060200201356001600160a01b03166001600160a01b0316146111d5576040805162461bcd60e51b81526020600482015260176024820152600080516020614b86833981519152604482015290519081900360640190fd5b60006111e0896115a3565b600054604080516020808b0282810182019093528a825293945061122f936001600160a01b0390931692858e03928c918c918291850190849080828437600092019190915250613ab492505050565b9250878360018551038151811061124257fe5b602002602001015110156112875760405162461bcd60e51b8152600401808060200182810382526025815260200180614ba66025913960400191505060405180910390fd5b6113198787600081811061129757fe5b905060200201356001600160a01b0316336112ff6000809054906101000a90046001600160a01b03168b8b60008181106112cd57fe5b905060200201356001600160a01b03168c8c60018181106112ea57fe5b905060200201356001600160a01b0316613bfb565b8660008151811061130c57fe5b6020026020010151613cbb565b61135883888880806020026020016040519081016040528093929190818152602001838360200280828437600092019190915250309250613e18915050565b60015483516001600160a01b0390911690632e1a7d4d908590600019810190811061137f57fe5b60200260200101516040518263ffffffff1660e01b815260040180828152602001915050600060405180830381600087803b1580156113bd57600080fd5b505af11580156113d1573d6000803e3d6000fd5b505050506113f685846001865103815181106113e957fe5b60200260200101516138cc565b801561148e576114488787600081811061140c57fe5b905060200201356001600160a01b031633600460009054906101000a90046001600160a01b031660065460075486028161144257fe5b04613cbb565b61148e8787600081811061145857fe5b905060200201356001600160a01b031633600560009054906101000a90046001600160a01b031660065460085486028161144257fe5b50509695505050505050565b6000546060906114b4906001600160a01b0316848461403b565b90505b92915050565b60008054819081906114d9906001600160a01b03168f8f613bfb565b90506000876114e8578c6114ec565b6000195b6040805163d505accf60e01b815233600482015230602482015260448101839052606481018c905260ff8a16608482015260a4810189905260c4810188905290519192506001600160a01b0384169163d505accf9160e48082019260009290919082900301818387803b15801561156257600080fd5b505af1158015611576573d6000803e3d6000fd5b505050506115898f8f8f8f8f8f8f612b87565b809450819550505050509b509b9950505050505050505050565b60095460009060ff161515600114156115be575060006115d4565b60006127106006548402816115cf57fe5b049150505b919050565b6060814281101561161f576040805162461bcd60e51b81526020600482015260126024820152600080516020614bed833981519152604482015290519081900360640190fd5b600061162a896115a3565b600054604080516020808b0282810182019093528a8252939450611679936001600160a01b0390931692858e03928c918c918291850190849080828437600092019190915250613ab492505050565b9250878360018551038151811061168c57fe5b602002602001015110156116d15760405162461bcd60e51b8152600401808060200182810382526025815260200180614ba66025913960400191505060405180910390fd5b6116e18787600081811061129757fe5b6113f6838888808060200260200160405190810160405280939291908181526020018383602002808284376000920191909152508a9250613e18915050565b60608142811015611766576040805162461bcd60e51b81526020600482015260126024820152600080516020614bed833981519152604482015290519081900360640190fd5b6001546001600160a01b03168686600019810181811061178257fe5b905060200201356001600160a01b03166001600160a01b0316146117db576040805162461bcd60e51b81526020600482015260176024820152600080516020614b86833981519152604482015290519081900360640190fd5b6000546040805160208089028281018201909352888252611825936001600160a01b0316928c92918b918b9182919085019084908082843760009201919091525061403b92505050565b91506000600654612710036006548460008151811061184057fe5b6020026020010151028161185057fe5b049050878360008151811061186157fe5b602002602001015111156112875760405162461bcd60e51b8152600401808060200182810382526021815260200180614b406021913960400191505060405180910390fd5b60065481565b6003546001600160a01b031633146118f9576040805162461bcd60e51b81526020600482015260136024820152600080516020614b20833981519152604482015290519081900360640190fd5b600755565b60085481565b6003546001600160a01b03163314611951576040805162461bcd60e51b81526020600482015260136024820152600080516020614b20833981519152604482015290519081900360640190fd5b6009805460ff1916911515919091179055565b600080546001548291611985916001600160a01b03918216918f9116613bfb565b9050600086611994578b611998565b6000195b6040805163d505accf60e01b815233600482015230602482015260448101839052606481018b905260ff8916608482015260a4810188905260c4810187905290519192506001600160a01b0384169163d505accf9160e48082019260009290919082900301818387803b158015611a0e57600080fd5b505af1158015611a22573d6000803e3d6000fd5b50505050611a348d8d8d8d8d8d6125e0565b9d9c50505050505050505050505050565b8042811015611a89576040805162461bcd60e51b81526020600482015260126024820152600080516020614bed833981519152604482015290519081900360640190fd5b6000611a94886115a3565b9050611b0186866000818110611aa657fe5b905060200201356001600160a01b031633611af96000809054906101000a90046001600160a01b03168a8a6000818110611adc57fe5b905060200201356001600160a01b03168b8b60018181106112ea57fe5b848c03613cbb565b600086866000198101818110611b1357fe5b905060200201356001600160a01b03166001600160a01b03166370a08231866040518263ffffffff1660e01b815260040180826001600160a01b03166001600160a01b0316815260200191505060206040518083038186803b158015611b7857600080fd5b505afa158015611b8c573d6000803e3d6000fd5b505050506040513d6020811015611ba257600080fd5b50516040805160208981028281018201909352898252929350611be49290918a918a91829185019084908082843760009201919091525089925061416e915050565b8115611c7657611c3087876000818110611bfa57fe5b905060200201356001600160a01b031633600460009054906101000a90046001600160a01b031660065460075487028161144257fe5b611c7687876000818110611c4057fe5b905060200201356001600160a01b031633600560009054906101000a90046001600160a01b031660065460085487028161144257fe5b87611d288289896000198101818110611c8b57fe5b905060200201356001600160a01b03166001600160a01b03166370a08231896040518263ffffffff1660e01b815260040180826001600160a01b03166001600160a01b0316815260200191505060206040518083038186803b158015611cf057600080fd5b505afa158015611d04573d6000803e3d6000fd5b505050506040513d6020811015611d1a57600080fd5b50519063ffffffff61445616565b1015611d655760405162461bcd60e51b8152600401808060200182810382526025815260200180614ba66025913960400191505060405180910390fd5b505050505050505050565b6003546001600160a01b03163314611dbd576040805162461bcd60e51b81526020600482015260136024820152600080516020614b20833981519152604482015290519081900360640190fd5b600180546001600160a01b0319166001600160a01b0392909216919091179055565b8042811015611e23576040805162461bcd60e51b81526020600482015260126024820152600080516020614bed833981519152604482015290519081900360640190fd5b6001546001600160a01b031685856000198101818110611e3f57fe5b905060200201356001600160a01b03166001600160a01b031614611e98576040805162461bcd60e51b81526020600482015260176024820152600080516020614b86833981519152604482015290519081900360640190fd5b6000611ea3886115a3565b9050611eb586866000818110611aa657fe5b611ef386868080602002602001604051908101604052809392919081815260200183836020028082843760009201919091525030925061416e915050565b600154604080516370a0823160e01b815230600482015290516000926001600160a01b0316916370a08231916024808301926020929190829003018186803b158015611f3e57600080fd5b505afa158015611f52573d6000803e3d6000fd5b505050506040513d6020811015611f6857600080fd5b5051905087811015611fab5760405162461bcd60e51b8152600401808060200182810382526025815260200180614ba66025913960400191505060405180910390fd5b60015460408051632e1a7d4d60e01b81526004810184905290516001600160a01b0390921691632e1a7d4d9160248082019260009290919082900301818387803b158015611ff857600080fd5b505af115801561200c573d6000803e3d6000fd5b5050505061201a85826138cc565b8115611d655761203087876000818110611bfa57fe5b611d6587876000818110611c4057fe5b60608142811015612086576040805162461bcd60e51b81526020600482015260126024820152600080516020614bed833981519152604482015290519081900360640190fd5b6001546001600160a01b0316868660008161209d57fe5b905060200201356001600160a01b03166001600160a01b0316146120f6576040805162461bcd60e51b81526020600482015260176024820152600080516020614b86833981519152604482015290519081900360640190fd5b346000612102826115a3565b600054604080516020808c0282810182019093528b825293945084860393612153936001600160a01b0316928592918e918e91829190850190849080828437600092019190915250613ab492505050565b9450898560018751038151811061216657fe5b602002602001015110156121ab5760405162461bcd60e51b8152600401808060200182810382526025815260200180614ba66025913960400191505060405180910390fd5b60015485516001600160a01b039091169063d0e30db09087906000906121cd57fe5b60200260200101516040518263ffffffff1660e01b81526004016000604051808303818588803b15801561220057600080fd5b505af1158015612214573d6000803e3d6000fd5b5050600154600080546001600160a01b03928316955063a9059cbb94506122629350909116908d908d908161224557fe5b905060200201356001600160a01b03168d8d60018181106112ea57fe5b8760008151811061226f57fe5b60200260200101516040518363ffffffff1660e01b815260040180836001600160a01b03166001600160a01b0316815260200182815260200192505050602060405180830381600087803b1580156122c657600080fd5b505af11580156122da573d6000803e3d6000fd5b505050506040513d60208110156122f057600080fd5b50516122f857fe5b612337858a8a808060200260200160405190810160405280939291908181526020018383602002808284376000920191909152508c9250613e18915050565b811561238557600454600654600754612364926001600160a01b0316919085028161235e57fe5b046138cc565b600554600654600854612385926001600160a01b0316919085028161235e57fe5b5050505095945050505050565b60095460ff1681565b6003546001600160a01b031633146123e8576040805162461bcd60e51b81526020600482015260136024820152600080516020614b20833981519152604482015290519081900360640190fd5b600480546001600160a01b0319166001600160a01b0392909216919091179055565b6003546001600160a01b03163314612457576040805162461bcd60e51b81526020600482015260136024820152600080516020614b20833981519152604482015290519081900360640190fd5b600080546001600160a01b0319166001600160a01b0392909216919091179055565b60006111128484846144a6565b6005546001600160a01b031681565b606081428110156124db576040805162461bcd60e51b81526020600482015260126024820152600080516020614bed833981519152604482015290519081900360640190fd5b6000546040805160208089028281018201909352888252612525936001600160a01b0316928c92918b918b9182919085019084908082843760009201919091525061403b92505050565b91506000600654612710036006548460008151811061254057fe5b6020026020010151028161255057fe5b049050878360008151811061256157fe5b602002602001015111156116d15760405162461bcd60e51b8152600401808060200182810382526021815260200180614b406021913960400191505060405180910390fd5b6003546001600160a01b031681565b6002546001600160a01b031681565b6001546001600160a01b031681565b6000611112848484614596565b60008142811015612626576040805162461bcd60e51b81526020600482015260126024820152600080516020614bed833981519152604482015290519081900360640190fd5b6001546126429089906001600160a01b03168989893089612b87565b604080516370a0823160e01b815230600482015290519194506126c692508a9187916001600160a01b038416916370a0823191602480820192602092909190829003018186803b15801561269557600080fd5b505afa1580156126a9573d6000803e3d6000fd5b505050506040513d60208110156126bf57600080fd5b5051613762565b60015460408051632e1a7d4d60e01b81526004810185905290516001600160a01b0390921691632e1a7d4d9160248082019260009290919082900301818387803b15801561271357600080fd5b505af1158015612727573d6000803e3d6000fd5b5050505061273584836138cc565b509695505050505050565b60075481565b6004546001600160a01b031681565b8042811015612799576040805162461bcd60e51b81526020600482015260126024820152600080516020614bed833981519152604482015290519081900360640190fd5b6001546001600160a01b031685856000816127b057fe5b905060200201356001600160a01b03166001600160a01b031614612809576040805162461bcd60e51b81526020600482015260176024820152600080516020614b86833981519152604482015290519081900360640190fd5b346000612815826115a3565b60015460408051630d0e30db60e41b81529051929350838503926001600160a01b039092169163d0e30db0918491600480830192600092919082900301818588803b15801561286357600080fd5b505af1158015612877573d6000803e3d6000fd5b5050600154600080546001600160a01b03928316955063a9059cbb94506128a89350909116908c908c90816112cd57fe5b836040518363ffffffff1660e01b815260040180836001600160a01b03166001600160a01b0316815260200182815260200192505050602060405180830381600087803b1580156128f857600080fd5b505af115801561290c573d6000803e3d6000fd5b505050506040513d602081101561292257600080fd5b505161292a57fe5b60008888600019810181811061293c57fe5b905060200201356001600160a01b03166001600160a01b03166370a08231886040518263ffffffff1660e01b815260040180826001600160a01b03166001600160a01b0316815260200191505060206040518083038186803b1580156129a157600080fd5b505afa1580156129b5573d6000803e3d6000fd5b505050506040513d60208110156129cb57600080fd5b50516040805160208b810282810182019093528b8252929350612a0d9290918c918c9182918501908490808284376000920191909152508b925061416e915050565b8215612a5557600454600654600754612a34926001600160a01b0316919086028161235e57fe5b600554600654600854612a55926001600160a01b0316919086028161235e57fe5b89612acf828b8b6000198101818110612a6a57fe5b905060200201356001600160a01b03166001600160a01b03166370a082318b6040518263ffffffff1660e01b815260040180826001600160a01b03166001600160a01b0316815260200191505060206040518083038186803b158015611cf057600080fd5b1015612b0c5760405162461bcd60e51b8152600401808060200182810382526025815260200180614ba66025913960400191505060405180910390fd5b50505050505050505050565b6003546001600160a01b03163314612b65576040805162461bcd60e51b81526020600482015260136024820152600080516020614b20833981519152604482015290519081900360640190fd5b600280546001600160a01b0319166001600160a01b0392909216919091179055565b6000808242811015612bce576040805162461bcd60e51b81526020600482015260126024820152600080516020614bed833981519152604482015290519081900360640190fd5b60008054612be6906001600160a01b03168c8c613bfb565b604080516323b872dd60e01b81523360048201526001600160a01b03831660248201819052604482018d9052915192935090916323b872dd916064808201926020929091908290030181600087803b158015612c4157600080fd5b505af1158015612c55573d6000803e3d6000fd5b505050506040513d6020811015612c6b57600080fd5b50506040805163226bf2d160e21b81526001600160a01b03888116600483015282516000938493928616926389afcb44926024808301939282900301818787803b158015612cb857600080fd5b505af1158015612ccc573d6000803e3d6000fd5b505050506040513d6040811015612ce257600080fd5b50805160209091015190925090506000612cfc8e8e614658565b509050806001600160a01b03168e6001600160a01b031614612d1f578183612d22565b82825b90975095508a871015612d7c576040805162461bcd60e51b815260206004820181905260248201527f434c53526f757465723a20494e53554646494349454e545f415f414d4f554e54604482015290519081900360640190fd5b89861015612dd1576040805162461bcd60e51b815260206004820181905260248201527f434c53526f757465723a20494e53554646494349454e545f425f414d4f554e54604482015290519081900360640190fd5b505050505097509795505050505050565b6000546001600160a01b031681565b6003546001600160a01b03163314612e3e576040805162461bcd60e51b81526020600482015260136024820152600080516020614b20833981519152604482015290519081900360640190fd5b600580546001600160a01b0319166001600160a01b0392909216919091179055565b6000546060906114b4906001600160a01b03168484613ab4565b6000806000612eb36000809054906101000a90046001600160a01b03168e600160009054906101000a90046001600160a01b0316613bfb565b9050600087612ec2578c612ec6565b6000195b6040805163d505accf60e01b815233600482015230602482015260448101839052606481018c905260ff8a16608482015260a4810189905260c4810188905290519192506001600160a01b0384169163d505accf9160e48082019260009290919082900301818387803b158015612f3c57600080fd5b505af1158015612f50573d6000803e3d6000fd5b50505050612f628e8e8e8e8e8e611017565b909f909e509c50505050505050505050505050565b60008060008342811015612fc0576040805162461bcd60e51b81526020600482015260126024820152600080516020614bed833981519152604482015290519081900360640190fd5b612fce8c8c8c8c8c8c61474c565b6000805492965090945090612fed906001600160a01b03168e8e613bfb565b9050612ffb8d338388613cbb565b6130078c338387613cbb565b806001600160a01b0316636a627842886040518263ffffffff1660e01b815260040180826001600160a01b03166001600160a01b03168152602001915050602060405180830381600087803b15801561305f57600080fd5b505af1158015613073573d6000803e3d6000fd5b505050506040513d602081101561308957600080fd5b5051949d939c50939a509198505050505050505050565b6003546001600160a01b031633146130ed576040805162461bcd60e51b81526020600482015260136024820152600080516020614b20833981519152604482015290519081900360640190fd5b600655565b6003546001600160a01b0316331461313f576040805162461bcd60e51b81526020600482015260136024820152600080516020614b20833981519152604482015290519081900360640190fd5b6001600160a01b03811661315257600080fd5b6003546040516001600160a01b038084169216907f8be0079c531659141344cd1fd0a4f28419497f9722a3daafe3b4186f6b6457e090600090a3600380546001600160a01b0319166001600160a01b0392909216919091179055565b600080600083428110156131f7576040805162461bcd60e51b81526020600482015260126024820152600080516020614bed833981519152604482015290519081900360640190fd5b600154613212908b906001600160a01b03168b348c8c61474c565b6000805460015493975091955091613238916001600160a01b03908116918e9116613bfb565b90506132468b338388613cbb565b600160009054906101000a90046001600160a01b03166001600160a01b031663d0e30db0856040518263ffffffff1660e01b81526004016000604051808303818588803b15801561329657600080fd5b505af11580156132aa573d6000803e3d6000fd5b50506001546040805163a9059cbb60e01b81526001600160a01b038781166004830152602482018b9052915191909216945063a9059cbb9350604480830193506020928290030181600087803b15801561330357600080fd5b505af1158015613317573d6000803e3d6000fd5b505050506040513d602081101561332d57600080fd5b505161333557fe5b806001600160a01b0316636a627842886040518263ffffffff1660e01b815260040180826001600160a01b03166001600160a01b03168152602001915050602060405180830381600087803b15801561338d57600080fd5b505af11580156133a1573d6000803e3d6000fd5b505050506040513d60208110156133b757600080fd5b50519250348410156133cf576133cf338534036138cc565b505096509650969350505050565b60608142811015613423576040805162461bcd60e51b81526020600482015260126024820152600080516020614bed833981519152604482015290519081900360640190fd5b6001546001600160a01b0316868660008161343a57fe5b905060200201356001600160a01b03166001600160a01b031614613493576040805162461bcd60e51b81526020600482015260176024820152600080516020614b86833981519152604482015290519081900360640190fd5b60005460408051602080890282810182019093528882526134dd936001600160a01b0316928b92918b918b9182919085019084908082843760009201919091525061403b92505050565b9150600060065461271003600654846000815181106134f857fe5b6020026020010151028161350857fe5b04905034818460008151811061351a57fe5b60200260200101510111156135605760405162461bcd60e51b8152600401808060200182810382526021815260200180614b406021913960400191505060405180910390fd5b60015483516001600160a01b039091169063d0e30db090859060009061358257fe5b60200260200101516040518263ffffffff1660e01b81526004016000604051808303818588803b1580156135b557600080fd5b505af11580156135c9573d6000803e3d6000fd5b5050600154600080546001600160a01b03928316955063a9059cbb94506135fa9350909116908b908b9081611adc57fe5b8560008151811061360757fe5b60200260200101516040518363ffffffff1660e01b815260040180836001600160a01b03166001600160a01b0316815260200182815260200192505050602060405180830381600087803b15801561365e57600080fd5b505af1158015613672573d6000803e3d6000fd5b505050506040513d602081101561368857600080fd5b505161369057fe5b6136cf838888808060200260200160405190810160405280939291908181526020018383602002808284376000920191909152508a9250613e18915050565b8015613717576004546006546007546136f6926001600160a01b0316919084028161235e57fe5b600554600654600854613717926001600160a01b0316919084028161235e57fe5b8260008151811061372457fe5b602002602001015181340311156137575761375733828560008151811061374757fe5b60200260200101513403036138cc565b505095945050505050565b604080516001600160a01b038481166024830152604480830185905283518084039091018152606490920183526020820180516001600160e01b031663a9059cbb60e01b178152925182516000946060949389169392918291908083835b602083106137df5780518252601f1990920191602091820191016137c0565b6001836020036101000a0380198251168184511680821785525050505050509050019150506000604051808303816000865af19150503d8060008114613841576040519150601f19603f3d011682016040523d82523d6000602084013e613846565b606091505b5091509150818015613874575080511580613874575080806020019051602081101561387157600080fd5b50515b6138c5576040805162461bcd60e51b815260206004820152601f60248201527f5472616e7366657248656c7065723a205452414e534645525f4641494c454400604482015290519081900360640190fd5b5050505050565b604080516000808252602082019092526001600160a01b0384169083906040518082805190602001908083835b602083106139185780518252601f1990920191602091820191016138f9565b6001836020036101000a03801982511681845116808217855250505050505090500191505060006040518083038185875af1925050503d806000811461397a576040519150601f19603f3d011682016040523d82523d6000602084013e61397f565b606091505b50509050806139bf5760405162461bcd60e51b8152600401808060200182810382526023815260200180614c0d6023913960400191505060405180910390fd5b505050565b6000808411613a045760405162461bcd60e51b8152600401808060200182810382526025815260200180614b616025913960400191505060405180910390fd5b600083118015613a145750600082115b613a4f5760405162461bcd60e51b8152600401808060200182810382526022815260200180614bcb6022913960400191505060405180910390fd5b6000613a63856126f763ffffffff61499a16565b90506000613a77828563ffffffff61499a16565b90506000613a9d83613a918861271063ffffffff61499a16565b9063ffffffff6149fd16565b9050808281613aa857fe5b04979650505050505050565b6060600282511015613b08576040805162461bcd60e51b815260206004820152601860248201527708698a698d2c4e4c2e4f27440929cac82989288bea082a8960431b604482015290519081900360640190fd5b815167ffffffffffffffff81118015613b2057600080fd5b50604051908082528060200260200182016040528015613b4a578160200160208202803683370190505b5090508281600081518110613b5b57fe5b60200260200101818152505060005b6001835103811015613bf357600080613bad87868581518110613b8957fe5b6020026020010151878660010181518110613ba057fe5b6020026020010151614a4c565b91509150613bcf848481518110613bc057fe5b602002602001015183836139c4565b848460010181518110613bde57fe5b60209081029190910101525050600101613b6a565b509392505050565b6000806000613c0a8585614658565b604080516bffffffffffffffffffffffff19606094851b811660208084019190915293851b81166034830152825160288184030181526048830184528051908501206001600160f81b031960688401529a90941b9093166069840152607d8301989098527fecba335299a6693cb2ebc4782e74669b84290b6378ea3a3873c7231a8d7d1074609d808401919091528851808403909101815260bd909201909752805196019590952095945050505050565b604080516001600160a01b0385811660248301528481166044830152606480830185905283518084039091018152608490920183526020820180516001600160e01b03166323b872dd60e01b17815292518251600094606094938a169392918291908083835b60208310613d405780518252601f199092019160209182019101613d21565b6001836020036101000a0380198251168184511680821785525050505050509050019150506000604051808303816000865af19150503d8060008114613da2576040519150601f19603f3d011682016040523d82523d6000602084013e613da7565b606091505b5091509150818015613dd5575080511580613dd55750808060200190516020811015613dd257600080fd5b50515b613e105760405162461bcd60e51b8152600401808060200182810382526024815260200180614c306024913960400191505060405180910390fd5b505050505050565b60005b600183510381101561403557600080848381518110613e3657fe5b6020026020010151858460010181518110613e4d57fe5b6020026020010151915091506000613e658383614658565b5090506000878560010181518110613e7957fe5b60200260200101519050600080836001600160a01b0316866001600160a01b031614613ea757826000613eab565b6000835b91509150600060028a51038810613ec25788613ef3565b6000548a51613ef3916001600160a01b03169088908d9060028d01908110613ee657fe5b6020026020010151613bfb565b600054909150613f0d906001600160a01b03168888613bfb565b6001600160a01b031663022c0d9f84848460006040519080825280601f01601f191660200182016040528015613f4a576020820181803683370190505b506040518563ffffffff1660e01b815260040180858152602001848152602001836001600160a01b03166001600160a01b0316815260200180602001828103825283818151815260200191508051906020019080838360005b83811015613fbb578181015183820152602001613fa3565b50505050905090810190601f168015613fe85780820380516001836020036101000a031916815260200191505b5095505050505050600060405180830381600087803b15801561400a57600080fd5b505af115801561401e573d6000803e3d6000fd5b505060019099019850613e1b975050505050505050565b50505050565b606060028251101561408f576040805162461bcd60e51b815260206004820152601860248201527708698a698d2c4e4c2e4f27440929cac82989288bea082a8960431b604482015290519081900360640190fd5b815167ffffffffffffffff811180156140a757600080fd5b506040519080825280602002602001820160405280156140d1578160200160208202803683370190505b50905082816001835103815181106140e557fe5b60209081029190910101528151600019015b8015613bf3576000806141278786600186038151811061411357fe5b6020026020010151878681518110613ba057fe5b9150915061414984848151811061413a57fe5b602002602001015183836144a6565b84600185038151811061415857fe5b60209081029190910101525050600019016140f7565b60005b60018351038110156139bf5760008084838151811061418c57fe5b60200260200101518584600101815181106141a357fe5b60200260200101519150915060006141bb8383614658565b5060008054919250906141d8906001600160a01b03168585613bfb565b9050600080600080846001600160a01b0316630902f1ac6040518163ffffffff1660e01b815260040160606040518083038186803b15801561421957600080fd5b505afa15801561422d573d6000803e3d6000fd5b505050506040513d606081101561424357600080fd5b5080516020909101516001600160701b0391821693501690506000806001600160a01b038a81169089161461427957828461427c565b83835b915091506142da828b6001600160a01b03166370a082318a6040518263ffffffff1660e01b815260040180826001600160a01b03166001600160a01b0316815260200191505060206040518083038186803b158015611cf057600080fd5b95506142e78683836139c4565b945050505050600080856001600160a01b0316886001600160a01b03161461431157826000614315565b6000835b91509150600060028c51038a1061432c578a614350565b6000548c51614350916001600160a01b0316908a908f9060028f01908110613ee657fe5b604080516000808252602082019283905263022c0d9f60e01b835260248201878152604483018790526001600160a01b038086166064850152608060848501908152845160a48601819052969750908c169563022c0d9f958a958a958a9591949193919260c486019290918190849084905b838110156143da5781810151838201526020016143c2565b50505050905090810190601f1680156144075780820380516001836020036101000a031916815260200191505b5095505050505050600060405180830381600087803b15801561442957600080fd5b505af115801561443d573d6000803e3d6000fd5b50506001909b019a506141719950505050505050505050565b808203828111156114b7576040805162461bcd60e51b815260206004820152601560248201527464732d6d6174682d7375622d756e646572666c6f7760581b604482015290519081900360640190fd5b60008084116144e65760405162461bcd60e51b8152600401808060200182810382526026815260200180614c546026913960400191505060405180910390fd5b6000831180156144f65750600082115b6145315760405162461bcd60e51b8152600401808060200182810382526022815260200180614bcb6022913960400191505060405180910390fd5b6000614555612710614549868863ffffffff61499a16565b9063ffffffff61499a16565b9050600061456f6126f7614549868963ffffffff61445616565b905061458c600182848161457f57fe5b049063ffffffff6149fd16565b9695505050505050565b60008084116145ec576040805162461bcd60e51b815260206004820152601f60248201527f434c534c6962726172793a20494e53554646494349454e545f414d4f554e5400604482015290519081900360640190fd5b6000831180156145fc5750600082115b6146375760405162461bcd60e51b8152600401808060200182810382526022815260200180614bcb6022913960400191505060405180910390fd5b82614648858463ffffffff61499a16565b8161464f57fe5b04949350505050565b600080826001600160a01b0316846001600160a01b031614156146c2576040805162461bcd60e51b815260206004820152601f60248201527f434c534c6962726172793a204944454e544943414c5f41444452455353455300604482015290519081900360640190fd5b826001600160a01b0316846001600160a01b0316106146e25782846146e5565b83835b90925090506001600160a01b038216614745576040805162461bcd60e51b815260206004820152601860248201527f434c534c6962726172793a205a45524f5f414444524553530000000000000000604482015290519081900360640190fd5b9250929050565b600080546040805163e6a4390560e01b81526001600160a01b038a811660048301528981166024830152915184938493169163e6a43905916044808301926020929190829003018186803b1580156147a357600080fd5b505afa1580156147b7573d6000803e3d6000fd5b505050506040513d60208110156147cd57600080fd5b50516001600160a01b031614156148655760008054604080516364e329cb60e11b81526001600160a01b038c811660048301528b811660248301529151919092169263c9c6539692604480820193602093909283900390910190829087803b15801561483857600080fd5b505af115801561484c573d6000803e3d6000fd5b505050506040513d602081101561486257600080fd5b50505b60008054819061487f906001600160a01b03168b8b614a4c565b91509150816000148015614891575080155b156148a15787935086925061498d565b60006148ae898484614596565b9050878111614917578581101561490c576040805162461bcd60e51b815260206004820181905260248201527f434c53526f757465723a20494e53554646494349454e545f425f414d4f554e54604482015290519081900360640190fd5b88945092508261498b565b6000614924898486614596565b90508981111561493057fe5b87811015614985576040805162461bcd60e51b815260206004820181905260248201527f434c53526f757465723a20494e53554646494349454e545f415f414d4f554e54604482015290519081900360640190fd5b94508793505b505b5050965096945050505050565b60008115806149b5575050808202828282816149b257fe5b04145b6114b7576040805162461bcd60e51b815260206004820152601460248201527364732d6d6174682d6d756c2d6f766572666c6f7760601b604482015290519081900360640190fd5b808201828110156114b7576040805162461bcd60e51b815260206004820152601460248201527364732d6d6174682d6164642d6f766572666c6f7760601b604482015290519081900360640190fd5b6000806000614a5b8585614658565b509050614a69868686613bfb565b50600080614a78888888613bfb565b6001600160a01b0316630902f1ac6040518163ffffffff1660e01b815260040160606040518083038186803b158015614ab057600080fd5b505afa158015614ac4573d6000803e3d6000fd5b505050506040513d6060811015614ada57600080fd5b5080516020909101516001600160701b0391821693501690506001600160a01b0387811690841614614b0d578082614b10565b81815b9099909850965050505050505056fe4f776e6572736869702072657175697265642e00000000000000000000000000434c53526f757465723a204558434553534956455f494e5055545f414d4f554e54434c534c6962726172793a20494e53554646494349454e545f494e5055545f414d4f554e54434c53526f757465723a20494e56414c49445f50415448000000000000000000434c53526f757465723a20494e53554646494349454e545f4f55545055545f414d4f554e54434c534c6962726172793a20494e53554646494349454e545f4c4951554944495459434c53526f757465723a204558504952454400000000000000000000000000005472616e7366657248656c7065723a204554485f5452414e534645525f4641494c45445472616e7366657248656c7065723a205452414e534645525f46524f4d5f4641494c4544434c534c6962726172793a20494e53554646494349454e545f4f55545055545f414d4f554e54a26469706673582212203e69781df158b65bc746a8a5668358d4dd4535d56a2c7abbcac2b3150d8e5c4b64736f6c63430006060033",
  "linkReferences": {},
  "deployedLinkReferences": {}
}