{
  "_format": "hh-sol-artifact-1",
  "contractName": "GetPrice",
  "sourceName": "contracts/GetPrice.sol",
  "abi": [
    {
      "inputs": [
        {
          "internalType": "address",
          "name": "_factory",
          "type": "address"
        }
      ],
      "stateMutability": "nonpayable",
      "type": "constructor"
    },
    {
      "inputs": [],
      "name": "factory",
      "outputs": [
        {
          "internalType": "address",
          "name": "",
          "type": "address"
        }
      ],
      "stateMutability": "view",
      "type": "function"
    },
    {
      "inputs": [
        {
          "internalType": "address",
          "name": "path0",
          "type": "address"
        },
        {
          "internalType": "address",
          "name": "path1",
          "type": "address"
        }
      ],
      "name": "getReserves",
      "outputs": [
        {
          "internalType": "uint256",
          "name": "reserveIn",
          "type": "uint256"
        },
        {
          "internalType": "uint256",
          "name": "reserveOut",
          "type": "uint256"
        }
      ],
      "stateMutability": "view",
      "type": "function"
    },
    {
      "inputs": [
        {
          "internalType": "address",
          "name": "path0",
          "type": "address"
        },
        {
          "internalType": "address",
          "name": "path1",
          "type": "address"
        },
        {
          "internalType": "uint256",
          "name": "amountInput",
          "type": "uint256"
        }
      ],
      "name": "getTokenPriceUsingAmount",
      "outputs": [
        {
          "internalType": "uint256",
          "name": "amountOut",
          "type": "uint256"
        }
      ],
      "stateMutability": "view",
      "type": "function"
    },
    {
      "inputs": [],
      "name": "owner",
      "outputs": [
        {
          "internalType": "address",
          "name": "",
          "type": "address"
        }
      ],
      "stateMutability": "view",
      "type": "function"
    },
    {
      "inputs": [
        {
          "internalType": "address",
          "name": "_owner",
          "type": "address"
        }
      ],
      "name": "setOwner",
      "outputs": [],
      "stateMutability": "nonpayable",
      "type": "function"
    }
  ],
  "bytecode": "0x608060405234801561001057600080fd5b506040516107553803806107558339818101604052602081101561003357600080fd5b5051600080546001600160a01b039092166001600160a01b031992831617905560018054909116331790556106e88061006d6000396000f3fe608060405234801561001057600080fd5b50600436106100575760003560e01c806313af40351461005c5780633ec9f61d146100845780638da5cb5b146100cc578063c45a0155146100f0578063d52bb6f4146100f8575b600080fd5b6100826004803603602081101561007257600080fd5b50356001600160a01b031661013f565b005b6100ba6004803603606081101561009a57600080fd5b506001600160a01b038135811691602081013590911690604001356101c0565b60408051918252519081900360200190f35b6100d46101f5565b604080516001600160a01b039092168252519081900360200190f35b6100d4610204565b6101266004803603604081101561010e57600080fd5b506001600160a01b0381358116916020013516610213565b6040805192835260208301919091528051918290030190f35b6001546001600160a01b0316331461019e576040805162461bcd60e51b815260206004820152601860248201527f6d73672073656e6465723a206973206e6f74206f776e65720000000000000000604482015290519081900360640190fd5b600180546001600160a01b0319166001600160a01b0392909216919091179055565b60008054819081906101dc906001600160a01b03168787610238565b915091506101eb848383610312565b9695505050505050565b6001546001600160a01b031681565b6000546001600160a01b031681565b60008054819061022d906001600160a01b03168585610238565b909590945092505050565b600080600061024785856103ea565b5090506102558686866104c8565b506000806102648888886104c8565b6001600160a01b0316630902f1ac6040518163ffffffff1660e01b815260040160606040518083038186803b15801561029c57600080fd5b505afa1580156102b0573d6000803e3d6000fd5b505050506040513d60608110156102c657600080fd5b5080516020909101516dffffffffffffffffffffffffffff91821693501690506001600160a01b0387811690841614610300578082610303565b81815b90999098509650505050505050565b60008084116103525760405162461bcd60e51b81526004018080602001828103825260298152602001806106416029913960400191505060405180910390fd5b6000831180156103625750600082115b61039d5760405162461bcd60e51b815260040180806020018281038252602681526020018061068d6026913960400191505060405180910390fd5b60006103ab856126f7610588565b905060006103b98285610588565b905060006103d3836103cd88612710610588565b906105f1565b90508082816103de57fe5b04979650505050505050565b600080826001600160a01b0316846001600160a01b0316141561043e5760405162461bcd60e51b815260040180806020018281038252602381526020018061066a6023913960400191505060405180910390fd5b826001600160a01b0316846001600160a01b03161061045e578284610461565b83835b90925090506001600160a01b0382166104c1576040805162461bcd60e51b815260206004820152601c60248201527f50616e63616b654c6962726172793a205a45524f5f4144445245535300000000604482015290519081900360640190fd5b9250929050565b60008060006104d785856103ea565b604080516bffffffffffffffffffffffff19606094851b811660208084019190915293851b81166034830152825160288184030181526048830184528051908501206001600160f81b031960688401529a90941b9093166069840152607d8301989098527fecba335299a6693cb2ebc4782e74669b84290b6378ea3a3873c7231a8d7d1074609d808401919091528851808403909101815260bd909201909752805196019590952095945050505050565b60008115806105a3575050808202828282816105a057fe5b04145b6105eb576040805162461bcd60e51b815260206004820152601460248201527364732d6d6174682d6d756c2d6f766572666c6f7760601b604482015290519081900360640190fd5b92915050565b808201828110156105eb576040805162461bcd60e51b815260206004820152601460248201527364732d6d6174682d6164642d6f766572666c6f7760601b604482015290519081900360640190fdfe50616e63616b654c6962726172793a20494e53554646494349454e545f494e5055545f414d4f554e5450616e63616b654c6962726172793a204944454e544943414c5f41444452455353455350616e63616b654c6962726172793a20494e53554646494349454e545f4c4951554944495459a26469706673582212204cae3615eadb50f51907768bb11b8fdfca7a716154451788e33a4f27d628ef6b64736f6c634300060c0033",
  "linkReferences": {},
  "deployedLinkReferences": {}
}